:020000040800F2
:20000000600800200D0E0008E10B0008E30B0008E50B0008E70B0008E90B0008000000005D
:20002000000000000000000000000000EB0B0008ED0B000800000000EF0B0008990B000814
:200040004D0E0008510E0008550E0008590E00085D0E0008610E0008650E0008690E000818
:200060006D0E0008710E0008750E0008790E00087D0E0008810E0008850E0008890E0008F8
:200080008D0E0008910E0008950E0008990E00089D0E0008A10E0008A50E0008A90E0008D8
:2000A000AD0E0008B10E0008B50E0008B90E0008BD0E0008C10E0008C50E0008C90E0008B8
:2000C000CD0E0008D10E0008D50E0008D90E0008DD0E0008F10B0008E50E0008E90E00088B
:2000E000ED0E0008F10E0008F50E000810B586B025208DF8040001208DF8050000208DF8D2
:20010000060001208DF8070001A800F045F901214FF4804000F0BDF90121092000F0B9F99D
:200120000121042000F084FA4020ADF8000003208DF8020018208DF803008C4C00A92046B5
:2001400000F011FA8020ADF8000004208DF8030000A9204600F007FA4FF416500290002058
:200160000390ADF81000ADF814000C20ADF812007F4C02A9204600F099FA012240F2255171
:20018000204600F0E9FA002240F22771204600F0E3FA0121204600F0D5FA06B010BD38B550
:2001A000744801210170744C2078032832D140F20321204600F06EF894F8031294F8042205
:2001C00002EB012189B2884220D16C480121017060786B4901EB40206A4D2860810AC9B2B6
:2001E000800507D1084600F03CF804281CBF182000F06AF84FF40072E11C284600F018F87F
:20020000042801D0182002E0062000E01520BDE8324059E004280AD1E078002807D1207944
:20022000022804D100F065F857480121017031BDF8B504460D461646042700F0F3FA760826
:2002400007D035F8021B206800F016FB0746042F01D03846F2BD2068801C2060761EF0D17D
:20026000F7E770B504460D1B01D4042C01D2022070BD00F0D7FA0026A00200F1006420469E
:2002800000F0DBFA0428F3D1761C04F58064B542F5D270BD30B4002299B141F22103491E41
:2002A00010F8014B82EA042292B208245500120446BF83EA050292B2AAB2641EF6D10029F2
:2002C000EDD1104630BC704710B5304C20702A48417861708078A07003212046FFF7DAFF39
:2002E0000112E17020712A48002101702948052133E010B5254C062020701F48417861707E
:200300008078A07003212046FFF7C4FF0112E1702071462060714320A0711620E07121202A
:200320002072002060720620A0724620E072492020734E2060734920A0735320E073482062
:2003400020740C21601DFFF7A5FF01126174A0740F48002101700F4813210170012240F28F
:2003600027710348BDE8104000F0F6B9000C01400038014017000020180000205704002056
:20038000000E0008500400205604002028040020550400205804002070B403781A460121F7
:2003A000C478ECB1164B1B6803F4E063C3F5E0631B0A4478C3F10405AC4085780F2626FA6F
:2003C00003F32B4023431B010E4C1355007842110D4B00F01F0001FA00F043F8220006E018
:2003E00050110A4A03F01F03994042F8201070BC7047074A114008430649086070470000B2
:020000040800F2
:200400000CED00E000E400E000E100E080E100E080FFFF1F08ED00E010B427490A6802F033
:200420000C02082A18BF254A0ED10A680B68C2F38342921CDB0358BF214B04D50B689B03FF
:200440004CBF1F4B1D4B5A4302600B681D4A0468C3F303139B5C24FA03F343600B684468E1
:20046000C3F302239B5C24FA03F383600B684468C3F3C2239B5C24FA03F3C3600968C3682F
:20048000C1F381318918097CB3FBF1F1016110BC70470D4A0029116814BF084321EA000039
:2004A00010607047094A0029116814BF084321EA00001060704700000410024000127A00EE
:2004C00000093D0000000020181002400C10024080B56E49884206D101210420FFF7E2FF44
:2004E000002104203CE06A49884206D101210820FFF7D8FF0021082032E06649884206D185
:2005000001211020FFF7CEFF0021102028E06249884206D101212020FFF7C4FF00212020A5
:200520001EE05E49884206D101214020FFF7BAFF0021402014E05A49884206D101218020C9
:20054000FFF7B0FF002180200AE05649884209D101214FF48070FFF7A5FF00214FF48070C5
:20056000FFF7A0FF01BD2DE9F041CB7803F00F02DB0644BF8B781A430B88DCB22CB3D0F88E
:2005800000C0002401250F2605FA04F7BE460EEA0308F04514D14FEA840E06FA0EF82CEA1A
:2005A000080C02FA0EFE4EEA0C0C91F803E0BEF1280F08BF476103D0BEF1480F08BF076106
:2005C000641C082CE0D3C0F800C04FF48074A34228D3D0F804C0002401250F2604F1080716
:2005E00005FA07F7BE460EEA0308F04515D14FEA840E06FA0EF82CEA080C02FA0EFE4EEAA1
:200600000C0C91F803E0BEF1280F08BF476191F803E0BEF1480F08BF0761641C082CDDD3FC
:20062000C0F804C0BDE8F081016170474161704770B41D4A00284CBF94691468C0F3034584
:2006400083B200F44016B6F5401F06D124F07064156825F0706515600CE0C60244BF032696
:2006600006FA05F503D4450D2D0103FA05F5AC4344F0706421B1410D090103FA01F10C43D3
:2006800000284CBF9461146070BC704700080140000C014000100140001401400018014046
:2006A000001C0140002001400400014030B585B004460D46208A4CF6FF710840E988084320
:2006C0002082A0894EF6F3110840A98808432989084369890843A081A08A4FF6FF410840F1
:2006E000A9890843A08200A8FFF796FE144884420CBF03980298296819225043A289120467
:200700004CBF49008900B0FBF1F16422B1FBF2F00001030902FB1311A3891B0406D5C9003E
:200720003231B1FBF2F101F0070105E009013231B1FBF2F101F00F010843208105B030BD5E
:20074000003801400029818912BF41F400514DF6FF7211408181704710B40B065B0F012474
:2007600001F01F0104FA01F1012B08BF0C3003D0022B0CBF10301430002A026814BF11433F
:2007800022EA0101016010BC7047C905C90D818070478088C005C00D704700880140481E8B
:2007A0008041C043C00F704710B40A06520F012301F01F0403FA04F4012A08BF828903D0BD
:2007C000022A0CBF028A828A2240090A03FA01F10088084022B1401E8041C043C00F00E0B2
:2007E000002010BC70470122090A02FA01F189B2C9430180704710B450F8041B81B10268EC
:020000040800F2
:200800001218001D50F8043BDC0744BFA9F10104E31852F8044B43F8044B091FF9D1EBE7A3
:2008200010BC704700E00000DFF8A800DFF8A8100160DFF8A8100160704738B505464FF4C4
:20084000302000F051F8042815D1DFF89440206840F0020020606560206840F040002060DB
:200860004FF4302000F040F8052804D0216841F6FD721140216032BD70B504460D464FF4C7
:20088000005000F031F8042810D1154E306840F00100306025804FF4005000F025F80528B4
:2008A00004D0316841F6FE721140316070BD0D480168C90701D5012070470168490701D54A
:2008C000022070470068C00601D5032070470420704700000420024023016745AB89EFCD60
:2008E000102002400C20024010B5FFE70446FFF7DEFF03E02CB1FFF7DAFF641E0128F9D04D
:2009000004B9052010BD50F8041B61B150F8042BD30744BFA9F101039A18002342F8043B6F
:20092000091FFAD1EFE77047F0B58BB001A80FF2A811242200F0EFF800214FF00060FFF721
:2009400058FD00F086F8FFF7D1FB00F00FF94FF4167000F01BF900F01CF90028FBD0222112
:2009600001A8FFF797FC01128DF826108DF8270003244A4D01AE242731782846FFF705FF02
:2009800080212846FFF709FF0028F9D0761C7F1EF2D1641EEED100F0FCF80128FBD10A2023
:2009A00000F0F4F83E4C2068401C20603D4D2968401A33280CD33C48007848B914223B4907
:2009C0003B4800F09BF83B4800210180FFF7E7FB20682968401AB0F5167F02D936480021ED
:2009E000017036488178491C81700278C9B291420ED100218170417881F0010141703048AB
:200A000019B10421FFF710FE02E00421FFF70EFE2C48017839B1491C0170C9B2652902D34F
:200A200025480021017020686528B4D3224800780028B0D124480168244A1140B1F1005FFB
:200A4000A9D141680091009C006800F0C5F8A047A1E710B582B001210C20FFF71AFD01214E
:200A60000120FFF716FD01211948FFF7E1FD01211848FFF7DDFD124C2046FFF729FD04209F
:200A8000ADF8000001208DF8020010208DF8030000A92046FFF767FD13BD0000003801409F
:200AA000480400204C04002017000020200200201800002046040020570400201400002090
:200AC000000C014056040020001000080000FE2F000430000002300046431621001C064E74
:200AE0004F57535F4543555F5A5F424C5F4C535F56332E305F312E302E3200004AB38B07FA
:200B000007D0521E11F8013B00F8013B21D08B07F7D183071ED1103A07D330B4B1E8381068
:200B2000103AA0E83810F9D230BC530724BFB1E80810A0E8081044BF51F8043B40F8043B54
:200B4000D20724BF31F8022B20F8022B44BF0B7803707047083A07D3B1E80810083A40F847
:200B6000043B40F804CBF7D25307E4E7174847F6FF4141601649F0220A70002181600721AF
:200B800001607047481E8041C00F704711490881704710480189F5E70E48018909B1491E37
:200BA0000181418811B14188491E4180818811B18188491E8180C18811B1C188491EC180FF
:200BC000018809B1491E01807047000010E000E023ED00E03C04002080F3088870477047A2
:200BE0007047FEE7FEE7FEE7FEE7704770477047F0B581B0284C40F2255529462046FFF7C4
:020000040800F2
:200C0000D3FD60B3254826490968016025480021017029462046FFF7E6FD2046FFF7B9FD84
:200C2000214B1A8821495054214DC0B2012805D12E78032E02D11F4E012737702870501CCF
:200C4000188040F2052280B2904208D31A4D2870002018801948FFF751FFFFF7A0FA40F2A4
:200C6000277529462046FFF79FFD98B1144E30781449415C2046FFF788FD3078401C30709F
:200C800011490978C0B2884204D1002229462046FFF762FD01B0F0BD003801404C040020D5
:200CA00048040020170000204604002020020020590400205704002054040020180000203D
:200CC0005504002028040020580400202648016841F0010101604168244A114041600168F6
:200CE000234A11400160016821F480210160416821F4FE0141604FF41F018160016821F435
:200D0000803101601B490A6842F010020A600A68920892000A600A6842F002020A6041687A
:200D2000416041684160416841F480614160416821F47C114160416841F460114160016823
:200D400041F08071016001688901FCD54168890889004160416841F002014160416801F0D0
:200D60000C010829FAD17047001002400000FFF8FFFFF6FE0020024010B5084979441C31F6
:200D8000074C7C441A34A14206D0081D0A68511888470146A142F8D110BD00BF08000000E3
:200DA0002800000063FBFFFF44040000180000200000000043FAFFFF180000003C0100009F
:200DC000000000200000000000F009F8002801D0FFF7D2FF0020FFF7A7FD00F002F801207D
:200DE000704780B500F002B800BF00000746384600F002F8FBE7000080B5C046C046024A7A
:200E000011001820ABBEFBE7260002000148804701480047CD0C00081D0E0008C046C04656
:200E2000C046C046FFF7D0FFFFF7DABEFFF7D9BEFFF7D8BEFFF7D7BEFFF7D6BEFFF7D5BE9C
:200E4000FFF7D4BEFFF7D3BEFFF7A6BEFFF7FEBFFFF7FEBFFFF7FEBFFFF7FEBFFFF7FEBFAA
:200E6000FFF7FEBFFFF7FEBFFFF7FEBFFFF7FEBFFFF7FEBFFFF7FEBFFFF7FEBFFFF7FEBFDA
:200E8000FFF7FEBFFFF7FEBFFFF7FEBFFFF7FEBFFFF7FEBFFFF7FEBFFFF7FEBFFFF7FEBFBA
:200EA000FFF7FEBFFFF7FEBFFFF7FEBFFFF7FEBFFFF7FEBFFFF7FEBFFFF7FEBFFFF7FEBF9A
:200EC000FFF7FEBFFFF7FEBFFFF7FEBFFFF7FEBFFFF7FEBFFFF7FEBFFFF7FEBFFFF7FEBF7A
:200EE000FFF786BEFFF7FEBFFFF7FEBFFFF7FEBFFFF7FEBFFFF7FEBF00000000010203042F
:200F000001020304060708090204060814000001FFFFFFFFFFFFFFFFFFFFFFFFFFFFFFFF90
:200F2000FFFFFFFFFFFFFFFFFFFFFFFFFFFFFFFFFFFFFFFFFFFFFFFFFFFFFFFFFFFFFFFFD1
:200F4000FFFFFFFFFFFFFFFFFFFFFFFFFFFFFFFFFFFFFFFFFFFFFFFFFFFFFFFFFFFFFFFFB1
:200F6000FFFFFFFFFFFFFFFFFFFFFFFFFFFFFFFFFFFFFFFFFFFFFFFFFFFFFFFFFFFFFFFF91
:200F8000FFFFFFFFFFFFFFFFFFFFFFFFFFFFFFFFFFFFFFFFFFFFFFFFFFFFFFFFFFFFFFFF71
:200FA000FFFFFFFFFFFFFFFFFFFFFFFFFFFFFFFFFFFFFFFFFFFFFFFFFFFFFFFFFFFFFFFF51
:200FC000FFFFFFFFFFFFFFFFFFFFFFFFFFFFFFFFFFFFFFFFFFFFFFFFFFFFFFFFFFFFFFFF31
:200FE000FFFFFFFFFFFFFFFFFFFFFFFFFFFFFFFFFFFFFFFFFFFFFFFFFFFFFFFFFFFFFFFF11
:020000040800F2
:20100000A0080020958500085182000853820008558200085782000859820008000000008B
:201020000000000000000000000000005B8200085D820008000000005F820008216D000865
:20104000D5850008D9850008DD850008E1850008E5850008E9850008ED850008F185000810
:20106000F5850008F9850008FD8500080186000805860008098600080D86000811860008EB
:201080001586000819860008618200082186000825860008298600082D8600083186000888
:2010A00099820008D98200083D86000841860008458600088B6000084D8600085186000890
:2010C00055860008598600085D8600086186000865860008EF8200086D8600087186000806
:2010E00075860008798600087D86000810B586B025208DF8040001208DF8050000208DF8C2
:20110000060001208DF8070001A801F004FD01214FF4804001F08EFD0121092001F08AFD1D
:201120000121042001F07DFE4020ADF8000003208DF8020018208DF80300DFF8404700A987
:20114000204601F0EEFD8020ADF8000004208DF8030000A9204601F0E4FD4FF41650029040
:2011600000200390ADF81000ADF814000C20ADF81200DFF80C4702A9204601F091FE01228D
:2011800040F22551204601F0E1FE002240F22771204601F0DBFE0121204601F0CDFE06B05B
:2011A00010BD38B5DFF8DC060578DFF8DC46032D40D32078462815D16078582812D1A078C4
:2011C0000C280FD1E078FF280CD1DFF8C00600210180DFF8BC0601880C2980F04E83C91CE3
:2011E000018031BDA91E204601F008FB291911F8022C11F8011C01EB022189B28842E4D1F7
:201200002078462816D16078432817D1DFF88406DFF8401D09680160DFF83C0D01884FF661
:20122000EF7211400180DFF86806018851B1491E018007E02078462840F0138360784328CD
:2012400040F08680A078112810D1E078012800F01483112823D12079002840F08C8060791B
:20126000002840F088801121112022E0162840F08280E07811281FD1207900287BD16079D2
:20128000022878D1A079DFF8301D0870E0790D2828BF0C20DFF8241D08701621E4E71228B9
:2012A0003BD12079002866D16079002863D111211220BDE8344001E3122815D120790028B3
:2012C00059D16079012856D1A079F12804BFDFF8540D012104D0F02803D1DFF8480D00215F
:2012E000017016211220E4E7132844D12079002841D1607901283ED1A079002803BF0021F1
:20130000DFF8942511800121DFF81C2D1070DFF88C05017016211320CBE7142806D1207949
:2013200048BB607938BB11211420C2E7182806D1207900BB6079F0B911211820B9E7202890
:2013400019D12079B8B96079A8B911212020B0E7422810D1A078112810D1E078402810D138
:201360002079002840F089826079002840F08582112140209DE7607842281ED1A0781128A1
:201380002ED1E078412806D1207948BB607938BB112141208DE7422806D1207900BB6079D9
:2013A000F0B91121422084E7442819D12079B8B96079A8B9112144207BE7432810D1A0788F
:2013C000112811D1E078612842D12079002840F054826079002840F050821121612068E732
:2013E0006078432840F0B881A07816282ED1E078612839D12079002840F0C481A079F12899
:020000040800F2
:2014000012D1DFF8800D01210170DFF87C0DF1210170DFF8780D00210170DFF88404017051
:20142000DFF88004F1210DE0F0280CD1DFF8540D00210170DFF870040068302803D2DFF8DC
:20144000480DF02101701621612032E7112867D1E078632825D12079002861D160790028A6
:201460005ED11121632024E7632837D12079002840F088816079012840F08481A079F12887
:2014800004BFDFF81C04012107D0F02806D1DFF8FC0C00210170DFF808040170162163202B
:2014A00007E7712808D12079002839D16079002836D111217120FCE6722806D1207978BB17
:2014C000607968BB11217220F3E6802828D1207930BB607920BB11218020EAE6812833D14B
:2014E0002079002840F04E816079032840F04A81E079000611D5207A78B9DFF8B00301880A
:201500004FF67E7211400180DFF8A403016821F010010160002002F01DF816218120C8E6AD
:20152000A07811280DD1E078822831D12079002840F028816079002840F024811121822034
:20154000B7E6162840F0CC80E07890283AD12079002840F0C5806079042840F0C180A07954
:20156000012812D1207AA0F11E01C9B207290CD2DFF8B41D00EB8002607A00EB400000EB87
:2015800082100880CB48098801801621902090E690280AD12079002840F0F48060790028B6
:2015A00040F0F0801121902083E691282ED12079002840F0E7806079002840F0E38011216A
:2015C000912076E691282ED12079002840F088806079022840F08480A079E17901EB002097
:2015E00080B2322838BF322002D3B52828BFB420DFF8B81D152250430A2290FBF2F0088012
:20160000AD48098801801621912052E6922839D12079002840F0B6806079002840F0B28055
:201620001121922045E6922837D12079002857D16079042854D1A079DFF8741D0870E07974
:20164000217A01EB0020DFF8E01C0988490980B2884238BF0846DFF8E01D0880607A03288B
:2016600038BF032002D3152828BF1420DFF84C190978884228BF481EDFF8C01D08701621EC
:20168000922016E6932815D1207900287AD16079002877D1112193200BE6932820D120798B
:2016A000F0B9607901281BD1A0797E49087016219320FEE5A02808D12079002862D1607900
:2016C00000285FD11121A020F3E5B0281DD12079002857D16079002854D11121B020E8E544
:2016E000A07816284ED1E078B1284BD12079002848D16079042845D1A079E17901EB0020B4
:2017000080B20A280AD20A200BE0B1283AD12079C0BB6079B0BB1121B120CAE5B52828BFC2
:20172000B420152148430A2190FBF1F0DFF8101D0880207AA0F11E01C9B2072909D200EB36
:201740008001607A00EB400000EB8110DFF8F41C08801621B120ACE5582813D1A0780C28CF
:2017600040F08B80E078E02840F087802079002840F083806079022840F07F80DFF8C80CC6
:20178000FA2179E06078432877D1A07811280BD1E078F12821D1207900286ED160790028B9
:2017A0006BD11121F12084E5162866D1E078F12829D12079002860D1607902285DD1A07925
:2017C000E17901EB0020411E89B2B1F5616F3CBFDFF8781C08801621E4E7F22808D1207917
:2017E00000284AD16079002847D11121F22060E5F32842D1207900283FD1607900283CD1F7
:020000040800F2
:201800001121F32055E5F32813D12079002834D16079022831D1A079E17901EB0020411EA1
:2018200089B2B1F5616F3CBFDFF8241C08801621E7E7212821D1207900281ED16079032869
:201840001BD1A079552818D1E079502815D1207A442812D11448006830280ED21621212009
:2018600027E55A2809D1A078532806D1E078312803D1DFF8E00B0121017031BD000C014081
:201880000038014078040020E8010020560100206A040020E80300203E040020870400200D
:2018A0008504002064010020E403002036040020C003002058040020C20000202DE9F0430F
:2018C00087B006460F46DFF88C0600680528C0F04681DFF8844BDFF8845B2878217888425C
:2018E00005D201F008FF287821788842F9D3FF2E40F03881DFF8686B46203070582070702C
:20190000B770FF20F07000203071242070711120B071DFF8500B018801EB81018A1001EB3A
:2019200052714903090C00220280DFF83C0B0278042A07D00078032804D0DFF8180B007859
:2019400000B90021080AF071317240207072DFF81C1BB1F90030DFF8180BB0F90000152293
:201960005528A6BF1B334FF4FA774FF425777B4393FBF2F200230B806FF0F90112B28A42DD
:20198000BEBF5142DFF8EC2A0A4302DB002A48BF002212B21112B172F27241213173DFF882
:2019A000DC1BCA5EDFF8D81B0968DFF80C361B78032B06D0032392FBF3F39A185218A123A4
:2019C00002E001EB8202A3235A43D20980B20A2802D2A1204843C209DFF89C0A018841F6EB
:2019E000417399420DD30B4692B203F164079742B8BF01F1640204DB643B9A42B8BFA1F179
:201A00006402028092B2100A7073B2734220F07300F036FD01024FF47A7291FBF2F189B2B4
:201A20000A0A327471744421B1740A27401D90FBF7F0F0745221317570754FF40041DFF8C0
:201A4000A40D01F0D7F9012818BF002003D1707D022801D2022070756120B075DFF8280783
:201A60000178F175DFF8F084B8F80010DFF8149799F80020012A05D1F122F2754FF6FD721A
:201A8000114007E0DFF8F42912681AB9F022F27541F00201A8F80010F17D0170802030764B
:201AA00000F0C6FE01127176B0767220F076DFF8380D018879434FF48E72B1FBF2F1DFF850
:201AC0002C2D13887B4340F22B17B3FBF7F30F043F0E377771771904090EB177F37700216B
:201AE00001801180822086F82000DFF8040D0068010E86F82110010C86F82210010A86F840
:201B0000231086F82400E02086F82500B8F80000010A86F8261086F82700932086F82800E0
:201B2000DFF8D00C007886F8290099F8000010B9F12086F829002A21304600F05FFE0112A0
:201B400086F82A1086F82B002C20207000202870012240F22771DFF8A00C01F0F7F907B088
:201B6000BDE8F083E02E20D1DFF8F4684620307058207070B770E020F07000203071022053
:201B80007071DFF8D4030788380AB071F7710821304600F033FE0112317270720A2020704A
:201BA00000202870002FDAD0D2E7012E1DD1DFF8B06846203070432070701120B070012014
:201BC000F07000203071052070715220B0714520F07141203072442070725920B072B220CF
:201BE000F0722C2030730D20AFE7112E1DD1DFF870684620307043207070B7701120F070F4
:020000040800F2
:201C00000020307102207071DFF8AC030078B071DFF8A8030078F0710821304600F0EEFD0C
:201C20000112317270720A208FE7122E1DD1DFF830684620307043207070B7701220F070CD
:201C40000020307101207071DFF8D803007801280CBFF120F020B0710721304600F0CEFD08
:201C60000112F171307209206FE7132E18D1DFF8F0674620307043207070B7701320F07073
:201C80000020307101207071E7480078B0710721304600F0B3FD0112F1713072092054E700
:201CA000142E21D1DFF8B8674620307043207070B7701420F070002030711920707100A873
:201CC0000FF6C841192201F034FD192200A9B01D01F022FD1F21304600F090FD0112F1772A
:201CE00086F82000212030E7182E21D1DFF870674620307043207070B7701820F0700020E0
:201D000030711920707100A80FF69C41192201F010FD192200A9B01D01F0FEFC1F213046F3
:201D200000F06CFD0112F17786F8200021200CE7202E1BD1DFF82867462030704320707014
:201D4000B7702020F07000203071182070711822DFF8341CB01D01F0DFFC1E21304600F043
:201D60004DFD0112B177F0772020EEE6402E39D1DFF8EC664620307042207070B7704020F3
:201D8000F0700020307102207071DFF8E406B0F90000014615225528A2BF01F11B004FF409
:201DA000FA714843BCBF4FF42570484390FBF2F06FF0F90100B28842BEBF4042DFF8B4166D
:201DC000084302DB002848BF002000B20112B171F0710821304600F011FD0112317270720F
:201DE0000A20B2E6412E38D1DFF874664620307042207070B7704120F070002030710220E5
:201E00007071DFF87807B0F90020DFF874070168A320694B1B78032B05D0032392FBF3F361
:201E20009A18521801E001EB82024243D209DFF84036B3F900309BB20A2B3CBF4843C209D9
:201E40001004000EB071F2710821304600F0D6FC0112317270720A2077E6422E1FD1DFF825
:201E600000664620307042207070B770F070002030710220707100F003FB00024FF47A714B
:201E800090FBF1F080B2010AB171F0710821304600F0B4FC0112317270720A2055E6442E68
:201EA0001CD1DFF8BC654620307042207070B7704420F070002030710120707100F0E0FA7D
:201EC000401D0A2190FBF1F0B0710721304600F095FC0112F1713072092036E6612E18D1FA
:201EE000DFF87C654620307043207070B7706120F0700020307101207071A3480078B07192
:201F00000721304600F07AFC0112F171307209201BE6632E22D1DFF848654620307043200B
:201F20007070B7706320F0700020307101207071964890F9000001280CBFF120F020B07157
:201F40000721304600F05AFC0112F17130720920FBE500BFC40300204E010020712E2FD1C9
:201F6000DFF8FC644620307043207070B7707120F0700020307108207071DFF8DC0A0088BA
:201F8000010AB171F071DFF8D40A0088010A31727072DFF8CC0A0068010EB172010CF1722F
:201FA000010A317370730E21304600F027FC0112B173F0731020C8E55F010020600100205F
:201FC000722E33D1DFF898644620307043207070B7707220F07000203071042070710A2731
:201FE000DFF8800A006878434FF48E71B0FBF1F0DFF8741A0968794340F22B12B1FBF2F1FF
:020000040800F2
:202000000204120EB271F0710804000E307271720A21304600F0F2FB0112B172F0720C2035
:2020200093E500BF8404002088040020802E1AD1DFF82C644620307043207070B770802005
:20204000F070002030710220707100F0F1FB0112B171F0710821304600F0D0FB01123172DA
:2020600070720A2071E5812E1DD1DFF8F4634620307043207070B7708120F0700020307101
:2020800003207071DFF8E4098179B171C079F071002030720921304600F0B0FB01127172CF
:2020A000B0720B2051E5822E1FD1DFF8B4634620307043207070B7708220F07000203071DC
:2020C00004207071DFF828070068010EB171010CF171010A317270720A21304600F08EFB43
:2020E0000112B172F0720C202FE5902E26D1DC4E4620307043207070B7709020F070002089
:202100003071042070710120B0710020F071864800884FF4A07190FBF1F23272327A01FBF2
:202120001200032190FBF1F070720A21304600F065FB0112B172F0720C2006E5912E27D1C4
:20214000C74E4620307043207070B7709120F07000203071022070719448008800EB800155
:202160004800152190FBF1F080B2010AB171F0710821304600F042FB0112317270720A2027
:20218000E3E400BF86040020910400207C040020922E1FD1B24E4620307043207070B7709A
:2021A0009220F070002030710420707180480078B071A1480088010AF17130729F48007807
:2021C00070720A21304600F019FB0112B172F0720C20BAE4932E1ED1A14E4620307043200E
:2021E0007070B7709320F0700020307101207071DFF800060078B071DFF87408007808B900
:20220000F120B0710721304600F0F8FA0112F1713072092099E4A02E1CD1914E46203070AF
:2022200043207070B770A020F0700020307102207071DFF840080078B071DFF83C08007805
:20224000F0710821304600F0D9FA0112317270720A207AE4B02E19D1814E4620307043209B
:202260007070B770B020F07000203071022070710020B07100F0A6FBF0710821304600F0A1
:20228000BDFA0112317270720A205EE4B12E2ED1734E4620307043207070B770B120F07043
:2022A00000203071042070716548008800EB80014800152190FBF1F080B2010AB171F0710D
:2022C000604800884FF4A07190FBF1F23272327A01FB1200032190FBF1F070720A2130469B
:2022E00000F08CFA0112B172F0720C202DE4F12E1CD15B4E4620307043207070B770F1205D
:20230000F070002030710220707150480088010AB171F0710821304600F070FA011231723C
:2023200070720A2011E400BFB8000020F22E1FD14B4E4620307043207070B770F220F0707A
:202340000020307104207071DFF830070068010EB171010CF171010A317270720A21304670
:2023600000F04CFA0112B172F0720C20FFF7EDBBF32E1FD13A4E4620307043207070B770BC
:20238000F320F070002030710220707130480088010AB171F0710821304600F02FFA0112AD
:2023A000317270720A20FFF7D0BB00BFC000002061010020212E7FF4D2AB294E4620307010
:2023C00043207070B7702120F07000203071072070710620B0715220F071452030724220A6
:2023E00070724F20B072F072542030730D21304600F004FA01127173B0730F202070002066
:020000040800F2
:202400002870012240F22771DFF8EC0300F09EFD207829788142FDD3012080F31388DFF814
:202420006006016801F4E061DFF8582611430160BFF34F8FFEE700BF520100206201002063
:20244000C40000204C010020630100204A010020540100208A0400208304002079040020D5
:20246000A4020020700400207604002044040020460400200080FFFF74040020E403002079
:20248000F8B53F480068DFF8004621686539B1F5F97F0BD93949B1F90010DFF8F0251278A8
:2024A000032A14BF00EB410000EB81004FF4A075DFF8DC150988A03191FBF5F1C9B22229CA
:2024C00008BF462212D0232908BF1E220ED0242908BF11220AD0252908BF0A2206D0262933
:2024E00008BF062202D0032222290DDBC0F54D5101EB81035900B1FBF2F101F525514FF469
:2025000025525043B0FBF1F0DFF88865F0603069B0F5165F20D9F16888420BD24FF40041E1
:20252000B04800F067FC0128306906D1318921B9401C02E0814201D2401EF0603089401C8C
:2025400030810E49B1F90010C911C1F1040180B28142BCBF00203081F0683061A14F4FF4CB
:202560000041384600F046FC0128F06840F08780B0F5275F06D2002524E000BF9A0000200D
:20258000C8030020B0F52C5F1ED2A0F5275096214843B0FBF5F540F2B630ADB285420BD331
:2025A00070694821B0FBF1F101F2B632954238BF01F2B635401C706140F2B630ADB285425A
:2025C00080F0B7800020C8E0B0F5315F08D2A0F52C5096214843B0FBF5F000F19605DAE74D
:2025E000B0F5365F08D2A0F5315096214843B0FBF5F000F22C15CEE7B0F53B5F08D2A0F549
:20260000365096214843B0FBF5F000F5E175C2E7B0F5405F09D2A0F53B5000EB800148017A
:20262000B0FBF5F000F25825B5E7B0F5455F09D2A0F5405000EB80014801B0FBF5F000F27F
:20264000F825A8E7B0F54A5F08D2A0F5455032214843B0FBF5F000F298359CE743F26041F6
:20266000884209D2A0F54A5000EB80014800B0FBF5F000F2CA358EE740F2DE3590E7B0F57B
:20268000255FFFF478AFB0F52A5F06D2A0F5255096214843B0FBF5F58EE7B0F52F5F08D233
:2026A000A0F52A5096214843B0FBF5F000F1960582E7B0F5345F08D2A0F52F5096214843DC
:2026C000B0FBF5F000F22C1576E7B0F5395F08D2A0F5345096214843B0FBF5F000F5E1758D
:2026E0006AE7B0F53E5F09D2A0F5395000EB80014801B0FBF5F000F258255DE7B0F5435F0F
:2027000009D2A0F53E5000EB80014801B0FBF5F000F2F82550E7B0F5485F08D2A0F54350E2
:2027200064214843B0FBF5F000F2983544E740F2E73520684FF47A71884209D33078012894
:202740000CD04FF40041384600F054FB012805D1A5F2B63000EBC001C80070614FF4004117
:20276000384600F047FB30704FF47A70854228BF40F2E735F088012803D1B5807580002021
:20278000F0804FF40041384600F034FB012809D17088854238BF0546284629460A2D11D2AD
:2027A0000A250FE0B0880146A84205D201F22C118D4205DA054603E0481B0830A1EB201553
:2027C00029462846B180B4490968090504D50025002042F6E01131617080B0480580A8B2CF
:2027E000F2BD0000000801405A0400205C04002008040020640100200038014030B40022B3
:020000040800F2
:2028000099B141F22103491E10F8014B82EA042292B208245500120446BF83EA050292B232
:20282000AAB2641EF6D10029EDD1104630BC704738B59B4C2078000606D580202080042161
:20284000984800F0E4FA01E000202080964800F0D3FA914D29682088890502D42968C906B3
:2028600001D540F001002968090504D54FF6FB71084040F002002968490504D54FF6FD7143
:20288000084040F004002968090748BF40F008002968890648BF40F04000844909684FF2C6
:2028A0001962914228BF40F0400020802868C00611D5754800684FF4167188420BD2217868
:2028C000090608D4332806D3802000F043FE208840F080002080208875490978012903D12B
:2028E00063490978012910D05F490968A1F6B8314CF2BC52914208D26E490978012907D1D5
:2029000061490968B1F5C87F02D94FF4007108432968490617D46849096840F6B83289B28D
:20292000914210D365490978282903D256490968C92908D262490978012907D15249096876
:20294000B1F5C87F02D94FF4807108435D490988C82251434C4A12685B4B1B68D21A914283
:2029600003D35A4A1288914201DA40F400605849097809B140F400505649097809B140F493
:2029800080402080208832BD68030020535F4543555F5A5F46575F4C535F332E3047455F98
:2029A000322E302E31000000535F4543555F5A5F48575F4C535F332E3047455F312E302E4C
:2029C0003000000030B439490A684FF249118A4228BF6FF0270335D201200FF2FC018C1C4A
:2029E00034F8025B954211D201EB400333F8023C0A2404FB00F5323D9A1A624331F81010C9
:202A0000591AB2FBF1F14B191BB21BE0401C34F8025B954222BF401C34F8025B954222BF4E
:202A2000401C34F8025B9542DED3401C34F8025B9542D9D3401C34F8025B9542D4D3401C02
:202A40001928CDDBC0B2182828BFC82303F13200C0B230BC704700002E0400203004002028
:202A6000EC03002004040020D0030020E8010020860400208B0400208C04002000040020F6
:202A80000CED00E00400FA05C40300205F010020B8000020FC000020C003002054040020A4
:202AA00036040020000C014000080140D80300207D040020960400203800002081040020D3
:202AC0009704002052040020E80300206C0400208F0400209004002048F1B4E897DCB1CCFE
:202AE00015B93EA3A28B7D74FE5EB74B943C052FA224A51C6C16DC11090E060BE50837075E
:202B0000E105C60408046F03EE0200001B4908431B490860704770B403781A460121C47808
:202B2000ECB1174B1B6803F4E063C3F5E0631B0A4478C3F10405AC4085780F2626FA03F30C
:202B40002B4023431B010F4C1355007842110E4B00F01F0001FA00F043F8220006E0501103
:202B60000A4A03F01F03994042F8201070BC7047074A114008430749086070470000FA056B
:202B80000CED00E000E400E000E100E080E100E080FFFF1F08ED00E0104308607047334936
:202BA0000A6822F44042F7E710B430490A6802F00C02082A18BF2E4A0ED10A680B68C2F384
:202BC0008342921CDB0358BF2A4B04D50B689B034CBF284B264B5A4302600B68264A0468F1
:202BE000C3F303139B5C24FA03F343600B684468C3F302239B5C24FA03F383600B68446854
:020000040800F2
:202C0000C3F3C2239B5C24FA03F3C3600968C368C1F381318918097CB3FBF1F1016110BC05
:202C20007047164A0029116814BF084321EA000010607047124A0029116814BF084321EA64
:202C40000000106070470F4A0029116814BF084321EA0000106070470B4A0029116814BF38
:202C6000084321EA00001060704700000410024000127A0000093D00140100201410024014
:202C8000181002400C1002401010024080B57C49884206D101210420FFF7D5FF002104201A
:202CA0003CE07849884206D101210820FFF7CBFF0021082032E07449884206D10121102081
:202CC000FFF7C1FF0021102028E07049884206D101212020FFF7B7FF002120201EE06C4969
:202CE000884206D101214020FFF7ADFF0021402014E06849884206D101218020FFF7A3FFEE
:202D0000002180200AE06449884209D101214FF48070FFF798FF00214FF48070FFF793FFF9
:202D200001BD2DE9F041CB7803F00F02DB0644BF8B781A430B88DCB22CB3D0F800C0002457
:202D400001250F2605FA04F7BE460EEA0308F04514D14FEA840E06FA0EF82CEA080C02FA06
:202D60000EFE4EEA0C0C91F803E0BEF1280F08BF476103D0BEF1480F08BF0761641C082C7A
:202D8000E0D3C0F800C04FF48074A34228D3D0F804C0002401250F2604F1080705FA07F7E5
:202DA000BE460EEA0308F04515D14FEA840E06FA0EF82CEA080C02FA0EFE4EEA0C0C91F815
:202DC00003E0BEF1280F08BF476191F803E0BEF1480F08BF0761641C082CDDD3C0F804C03A
:202DE000BDE8F0814FF6FF710180022181700421C1707047806802E0806880B2704701408A
:202E0000481E8041C043C00F7047016170474161704741F48032826181618261816980692E
:202E2000704770B41D4A00284CBF94691468C0F3034583B200F44016B6F5401F06D124F035
:202E40007064156825F0706515600CE0C60244BF032606FA05F503D4450D2D0103FA05F59A
:202E6000AC4344F0706421B1410D090103FA01F10C4300284CBF9461146070BC7047000074
:202E800000080140000C0140001001400014014000180140001C014000200140040001409A
:202EA00030B585B004460D46208A4CF6FF710840E98808432082A0894EF6F3110840A9886F
:202EC00008432989084369890843A081A08A4FF6FF410840A9890843A08200A8FFF764FEB6
:202EE000144884420CBF03980298296819225043A28912044CBF49008900B0FBF1F1642220
:202F0000B1FBF2F00001030902FB1311A3891B0406D5C9003231B1FBF2F101F0070105E036
:202F200009013231B1FBF2F101F00F010843208105B030BD003801400029818912BF41F454
:202F400000514DF6FF7211408181704710B40B065B0F012401F01F0104FA01F1012B08BF0A
:202F60000C3003D0022B0CBF10301430002A026814BF114322EA0101016010BC7047C9054B
:202F8000C90D818070478088C005C00D704710B40A06520F012301F01F0403FA04F4012AC5
:202FA00008BF828903D0022A0CBF028A828A2240090A03FA01F10088084022B1401E8041B7
:202FC000C043C00F00E0002010BC70472DE9F0414FF0FF34DFF86C562888DFF86C66318838
:202FE00000285BD04EF6EE62801A1FD041F21112801A40F0878031B9284600F0D0FB0428FB
:020000040800F2
:2030000000F0848083E04EF6EE6081420BD1284600F0C5FB04287AD10021304600F0DEFB33
:20302000042874D172E000F0A1F8F9E739BB0027DFF81866DFF818863088E988814208BFCC
:203040003C4624B2A7420BD0414600F062F8012806D0B8F80010308800F0BBF8042856D116
:203060007F1CB61C202FE7DB0021284600F0B6FB04284CD1DFF8D00500F091FBD0E74FF635
:20308000FF70814207D1304600F089FB04283ED100212846C2E700F069F8C1E70029C2D015
:2030A0004FF6FF70814205D1304600F078FB04282DD12BE00027DFF89455DFF8948528882E
:2030C000F188814208BF3C4624B2A7420BD0414600F01FF8012806D0B8F80010288800F0E4
:2030E00078F8042813D17F1CAD1C202FE7DB0021304600F073FB042809D1DFF8480500F0CC
:203100004EFB8DE700F032F8042800D10420BDE8F08170B504460D460126002000F039F877
:20312000AB2816D0DFF81C1501EB8021DFF8242502EB8020891C81420AD20288A24202BF21
:2031400030F8020C2880002602D0001F8142F4D3304670BD38B504460D4600F03AF88028F9
:2031600003D12946204600F05BF832BD10B5DFF8D444204600F013FB042809D100212046CF
:2031800000F02CFB042804BFDFF8BC0400F007FB10BDDFF8B0140988DFF8AC24128888B12D
:2031A000012814D12AB94EF6EE6081420FD001207047002904D14EF6EE60824207D1F6E709
:2031C000AB207047002903D0002AF9D1EFE70020704770B504460D460120FFF7DAFFAB284B
:2031E0001DD0DFF8601401EB8026DFF8681401EB8020864212D2316811F1010F0BD1294684
:20320000304600F0EBFA042809D12146B01CBDE8704000F0E3BA361D8642ECD3802070BDA1
:203220002DE9F84304460F460020FFF7B2FF01280BD1DFF81084DFF810944EF6EE614046D3
:2032400000F0CCFA042808D02CE020B9DFF8F883DFF8F093F1E7AB2024E039462046FFF7A1
:20326000B8FF04281ED1DFF8E4732025DFF8E0633888A0420AD03146FFF74BFF012805D0BE
:2032800031883888FFF7A5FF04280BD1BF1C6D1EEED1484600F083FA042803D1002140464C
:2032A00000F09CFABDE8F28330B583B0DFF89C4345F25550208046F26660608047F2777026
:2032C000A08048F68800E08049F6991020814AF6AA2060814BF6BB30A0814CF60740E081FD
:2032E0004CF6084020824CF6094060824CF60A40A0824CF60B40E0824CF60C4020834CF625
:203300000D4060834CF60E40A08300F03DFAFFF75DFEDFF8445329462088FFF7FAFEAB280C
:2033200004BF4FF425502880288841F28831401A43F6992180B2884224BF4FF42550288042
:203340002888C6490880C6490880C64D29466088FFF7DFFE10B14FF4AD702880288864383D
:203360004FF4D27180B2884224BF4FF4AD7028802888BD490880BD490880BD490880BD4881
:2033800043F698210180BC4D2946E088FFF7C1FE08B100202880B948298801700078B84908
:2033A000087001280ED1B74801210170B64801884FF6FD7211400180B44801881140018097
:2033C000F12000E0F020B2490870B248012101700DF106012089FFF79CFE10B10020ADF828
:2033E000060001A96089FFF794FE10B10020ADF80400A948BDF80610BDF8042002EB01415E
:020000040800F2
:203400000160A649006808600DF10201A089FFF780FE10B10020ADF80200BDF802000006A9
:2034200002D59F488021018000A9E089FFF771FE10B10120ADF800009A48BDF80010017096
:2034400099490078087000A9208AFFF762FE10B11120ADF800009548BDF80010017094496A
:203460000078087000A9608AFFF753FE18B142F64420ADF800008F48BDF8001001808E4984
:203480000088088000A9A08AFFF743FE10B1B220ADF800008948BDF800100180884900886A
:2034A000088000A9E08AFFF734FE10B10120ADF800008448BDF80010017083490078087004
:2034C00000A9208BFFF725FE10B10320ADF800007E48BDF8001001707D490078087000A99B
:2034E000608BFFF716FE18B14FF4AA70ADF800007848BDF80010018077490088088000A98D
:20350000A08BFFF706FE10B1F120ADF800007348BDF80010017072490078087003B030BDD3
:2035200010B5044600F030F9FFF750FD21464748C08818E038B5044600F026F9FFF746FD6B
:20354000424D210C2889FFF705FEA1B26889BDE83440FFE510B5044600F016F9FFF736FD8D
:2035600021463A488089BDE81040F3E538B500F00BF9FFF72BFD354C4A4D2978E089FFF775
:20358000E9FD494829780170484D2978208AFFF7E1FD47482978017031BD38B500F0F4F896
:2035A000FFF714FD294C2D4D29882088FFF7D2FD2B48298801802D4D29886088FFF7CAFD82
:2035C0002B48298801803B4D2988608AFFF7C2FD394829880180394D2988A08AFFF7BAFDAD
:2035E00037481BE038B500F0CFF8FFF7EFFC174C344D2978E08AFFF7ADFD334829780170B0
:20360000324D2978208BFFF7A5FD314829780170304D2988608BFFF79DFD2F48298801806A
:2036200031BD38B52D4C257800F0AEF8FFF7CEFC29460648808BFFF78DFD29482178017080
:2036400031BD000000F8000800FC00082802002072040020FEFB0008B80000205804002043
:2036600060040020BA000020C0000020C20000206404002038040020340400208604002044
:2036800089040020840400204E010020500100209104002059010020EC030020F0030020A4
:2036A000360400205F0100209204002060010020930400204C01002062040020C40000206B
:2036C000660400206101002094040020620100209504002052010020680400206401002066
:2036E0006501002009490860704709490860704708490860704705484AF6AA210160704782
:2037000002484CF6CC410160704700000030004004300040083000404AB38B0707D0521EC6
:2037200011F8013B00F8013B21D08B07F7D183071ED1103A07D330B4B1E83810103AA0E891
:203740003810F9D230BC530724BFB1E80810A0E8081044BF51F8043B40F8043BD20724BF1E
:2037600031F8022B20F8022B44BF0B7803707047083A07D3B1E80810083A40F8043B40F840
:2037800004CBF7D25307E4E700E00000DFF8A800DFF8A8100160DFF8A8100160704738B589
:2037A00005464FF4302000F051F8042815D1DFF89440206840F0020020606560206840F07E
:2037C000400020604FF4302000F040F8052804D0216841F6FD721140216032BD70B504460E
:2037E0000D464FF4005000F031F8042810D1154E306840F00100306025804FF4005000F0D9
:020000040800F2
:2038000025F8052804D0316841F6FE721140316070BD0D480168C90701D501207047016896
:20382000490701D5022070470068C00601D50320704704207047000004200240230167459A
:20384000AB89EFCD102002400C20024010B5FFE70446FFF7DEFF03E02CB1FFF7DAFF641EBF
:203860000128F9D004B9052010BD50F8041B61B150F8042BD30744BFA9F101039A18002367
:2038800042F8043B091FFAD1EFE770472DE9F0439DB04FF40040FFF782F901210120FFF76C
:2038A000C0F901211D20FFF7C5F901214FF40070FFF7C0F901214FF48060FFF7BBF90121A7
:2038C0004FF40060FFF7B6F901214FF4806001F0ADFC00A8FFF786FAFF20ADF800000020BF
:2038E0008DF80300DFF8704D00A92046FFF719FA00A8FFF777FA0320ADF8000000208DF818
:203900000300DFF8DC8D00A94046FFF70AFADFF84C5D284601F096FCDFF8A40D1290DFF8C9
:203920005C6E06F238001390002014900520159000201690802017904FF4007018904FF4B1
:203940000067199720201A9000201B901C9012A9284601F0E1FC0121284601F0F8FCDFF8AC
:20396000845D284601F01AFD0BA801F01BFF0020ADF82C002020ADF82E004FF4FA60ADF8EC
:2039800030004FF48079ADF8329001208DF834000BA9284601F0C9FD02A801F00CFF60207B
:2039A000ADF808000120ADF80A000420ADF80C004FF47A70ADF80E000020ADF810000820D8
:2039C000ADF812000020ADF81400ADF8169002A9284601F0E7FD02A9284601F01FFE02A94C
:2039E000284601F051FE00A8FFF7FCF94FF4E060ADF8000018208DF8030003208DF80200F4
:203A000000A92046FFF78DF94FF46040ADF8000018208DF8030003208DF8020000A94046FA
:203A2000FFF77FF94FF4E0612046FFF7F2F900A8FFF7D8F94FF48054ADF8004004208DF839
:203A4000030000A94046FFF76CF902A801F0B3FE7020ADF808000120ADF80A000020ADF8BB
:203A60000C0040F2CF70ADF80E000020ADF810000820ADF812000020ADF81400ADF816903E
:203A800002A9284601F037FE0821284601F0BCFE0821284601F0BFFE0821284601F0C3FE17
:203AA0000821284601F0C6FEADF838704FF48060ADF83A00ADF83C902020ADF83E00ADF832
:203AC00040400020ADF84200ADF844000EA9284601F05AFE2021284601F0B4FE80212846A7
:203AE00001F0C1FE01228021284601F083FE0121284601F06AFE288B48F68F710840F083DD
:203B0000A88B4FF68F71084030840121284601F079FE0121284601F0A5FE00220121284663
:203B200001F068FE00221021284601F063FEDFF8504C204601F09AFEDFF8485C284601F0DF
:203B400095FE0121204601F0DFFE0121284601F0DBFE06A801F0CFFE4FF48030069001200C
:203B60008DF81C0000208DF81D004FF460260896099705208DF8280006A9204601F09DFE68
:203B800006A801F0B8FE01208DF81C0000208DF81D000896099701208DF8280006A9284623
:203BA00001F08BFE204601F0CBFE284601F0C8FE204601F0CAFE0646284601F0C6FE064270
:203BC000F6D100F06AF8022301220321204601F0CBFE022302220921204601F0C5FE072389
:203BE00003221021204601F0BFFE022304220821204601F0B9FE022305221946204601F0D7
:020000040800F2
:203C0000B3FE012001F04BFF022301220721284601F0AAFE0121204601F0E0FE0121284639
:203C200001F0DCFE0121204601F077FE0121284601F073FE4FF4A060FEF768FF12208DF883
:203C4000040001208DF8050000208DF8060001208DF8070001A8FEF75EFF19208DF80400A0
:203C600001208DF8050000208DF8060001208DF8070001A8FEF74FFF18208DF80400002074
:203C80008DF805008DF8060001208DF8070001A8FEF741FF1DB0BDE8F08370B5DFF8E04A79
:203CA00000224FF49061204601F041FEDFF8CC5A0020E8816882E8824FF4E041204601F083
:203CC00096FEDFF8C06A4FF4E041304601F08FFE0121204601F094FE0121304601F090FED5
:203CE0000321204601F0C6FE002301222979204601F098FE002302226979204601F092FEA0
:203D000000230322A979204601F08CFE0421204601F0E3FE0121204601F07BFE10260421AE
:203D2000204601F0D3FE0028F9D01421204601F0A9FEE989001D01EBE000E88118212046D4
:203D400001F0A0FE698A001D01EBE00068821C21204601F097FEE98A001D01EBE000E8821F
:203D60000421204601F0B9FE0121204601F051FE761ED4D1E8892882688AA882E88A2883BB
:203D80004FF48051204601F032FEBDE87040F8B5DFF8504900220121204601F02BFDDFF87C
:203DA000E05900224FF49061284601F0C0FD0021284601F025FE0421284601F08EFE012183
:203DC000284601F057FEDFF8BC690121304601F051FE00F029F800F042F9DFF8A07900230C
:203DE00001227979284601F01DFE002301223979304601F017FE0021284601F001FE04211C
:203E0000284601F06AFE01224FF49061284601F08EFD0121204601F025FD01220121204654
:203E2000BDE8F84001F0E6BC2DE9F04F85B0DFF84C09C08AADF80800DFF84019C98902AA37
:203E40005180DFF838395B8A9380D080ADF810105381DFF89048208C4DF6FF71084020846E
:203E6000DFF824094FF4A06101804FF46040ADF8000018208DF8030003208DF8020000A9DE
:203E8000DFF85C08FEF74DFF0025DFF80009019002AEDFF8FC784FF00308DFF8E498208CCC
:203EA0004FF6AA2108402084208B48F68F7108402083A08B4FF68F710840A0830023012211
:203EC00001980178484601F0ADFD0023012201984178DFF8B00801F0A5FD0121204601F074
:203EE000C1FC0121204601F0B6FC0028F9D00121484601F085FDDFF88408C08B398808430C
:203F00002083DFF87808008C79880843A083208CB988084320840121204601F060FC0421D6
:203F2000484601F0DAFD0421484601F0CFFD48B98021204601F08FFC20B9DFF858080068BF
:203F40008005F0D50021204601F049FC0021484601F056FD1421484601F094FD3188D1EBAD
:203F60004000824648BFCAF1000A1421DFF8140801F088FD7188D1EB4000834648BFCBF14E
:203F8000000B8021204601F066FC012804D0DFF80408006880051DD5DFF8FC070078002883
:203FA0000CBF10204FF4007001F0D3FDDFF8EC07002101704FF46040ADF8000018208DF8F1
:203FC000030003208DF8020000A9DFF81407FEF7A8FE41E041F23D30824501DA83450CDBEC
:203FE0008021204601F03EFCDFF8AC070078002814BF4FF400701020D6E7BBF15C0F04DAFD
:020000040800F2
:2040000002F044F80A28B8BF6D1C07F20607361D0198801C0190B8F101087FF440AFDFF836
:204020005C07C08B46F2600108432083DFF84C07008C40F06000A083208C40F25551084313
:204040002084ADB2022D07D3DFF84807006840045CBF202001F07DFD05B0BDE8F08FDFF80C
:2040600040074FF47A7101808180018140F2CF718181DFF8080700214183C170DFF8D41C90
:2040800000220A800285704781B0DFF8F0064178491E052944D8DFE801F0142C2C03031490
:2040A000C189DFF800271268A1EB420101F30F01ADF80010408ADFF8A01C0968A0EB41001C
:2040C0002AE0418ADFF8DC261268A1EB420101F30F01ADF80210DFF8801C0968C08AC0EB55
:2040E0004100BDF90210401A00F30F00ADF8000016E0C189DFF8AC261268A1EB420101F390
:204100000F01ADF80010DFF8501C0968C08AC0EB4100BDF90010401A00F30F00ADF8020027
:20412000009801B070470000F0B50B4643F2206606FB00F7DFF870265343FA1802EBD27290
:204140005610DA1B02EBD2725710002E0BD5002F48BF4FF0050C11D4012BACBF4FF0030C0E
:204160004FF0040C0AE0002F58BF4FF0020C05D5012BB4BF4FF0060C4FF0010CDFF8FC2565
:2041800082F801C0B2F81AC0B2F91CE0BEF1000F08BF4FF0000C04D0BCF5FA6F38BF0CF107
:2041A000010CA2F81AC04FF0000C82F800C092F801C0ACF1010CBCF1050F65D8DFE81CF033
:2041C00006007000C9000A016501A901181403EBD0304514D81B518BB1F5FA6F10D200EB67
:2041E000D0704010011400EBD130401400F2E83189B2381407EBD03001EB6040441B06E085
:20420000011400EBD130411489B228460024C1F5FA639BB2B3F5A07F02DD40F2CF752BE0F4
:20422000A62B0BDB01F24015ADB2B5F5FA6F23DB0123137040F69F735D1B1CE00D1A4FF442
:20424000A676ADB2B54214D2612B0FDA4FF4FA61C0F5FA639BB2A62B38BF40F22A7000F20E
:204260004015ADB2B5F5FA6F06DBE1E740F28460401AA1F10D05ADB2136DDFF8E06A336027
:20428000536DDFF8DC6A3360DFF8D83A1678002E1E8806BF4DF6FF773E4046F400567CE17A
:2042A000301406EBD0304414508BB0F5FA6F11D2F01B00EBD0704010011400EBD1304014CA
:2042C00000F2E83189B2381407EBD03001EB60400C1B06E0A1B2F019031400EBD33040140C
:2042E0000024C0F5FA639BB2B3F5A07F02DD40F2CF752CE0A62B0BDB00F24015ADB2B5F50C
:20430000FA6F24DB0123137040F69F735D1B1DE0451A4FF4A676ADB2B54215D2612B0FDA61
:204320004FF4FA60C1F5FA639BB2A62B38BF40F22A7101F24015ADB2B5F5FA6F07DBE1E787
:2043400040F28461091A89B2A0F10D05ADB2D36C93E7301406EBD0304414508BB0F5FA6FB7
:2043600011D2F01A00EBD0704010011400EBD130401400F2E83189B20C1B181403EBD030F9
:2043800004EB604006E000216442981B031400EBD3304014C0F5FA639BB2B3F5A07FA6DC2D
:2043A000A62BA9DA051B4FF4A676ADB2B542CBD2612B0BDA4FF4FA60C4F5FA639BB2A62BF5
:2043C00038BF40F22A7404F24015B4E740F284631C1AB9E7381407EBD0304014518BB1F52D
:2043E000FA6F11D2D91B01EBD17149100C1401EBD431491401F2E83189B240181C1403EBCB
:020000040800F2
:20440000D433A0EB634405E00021FB1A1C1403EBD4335C14C4F5FA639BB2B3F5A07F02DDAA
:2044200040F2CF752BE0A62B0BDB04F24015ADB2B5F5FA6F23DB0123137040F69F735D1B22
:204440001CE0251A4FF4A676ADB2B54214D2612B0FDA4FF4FA64C0F5FA639BB2A62B38BF49
:2044600040F22A7000F24015ADB2B5F5FA6F06DBE1E740F28460001BA4F10D05ADB2D36C98
:20448000DFF8D8683360136DFBE6381407EBD0304014518BB1F5FA6F11D2F11B01EBD17177
:2044A00049100B1401EBD331491401F2E83189B24018331406EBD333A1EB634408E04142BC
:2044C00089B20020BB191C1403EBD4335B145C42C4F5FA639BB2B3F5A07FA1DCA62BA4DA85
:2044E000651A4FF4A676ADB2B542C5D2612B0BDA4FF4FA64C1F5FA639BB2A62B38BF40F285
:204500002A7101F24015AFE740F28461091B89B2B2E7181403EBD0304514F01A518BB1F514
:20452000FA6F10D200EBD0704010011400EBD130401400F2E83189B2301406EBD030A1EB59
:204540006044281906E0011400EBD130411489B26C420020C1F5FA639BB2B3F5A07F3FF7D4
:204560005CAEA62BBFF65EAE0D1B4FF4A676ADB2B542BFF47EAE612B0BDA4FF4FA61C4F51B
:20458000FA639BB2A62B38BF40F22A7404F2401567E640F284635C1A6BE61E8040F2D1764A
:2045A0008FB2B7422CBF518C518480B2B0422CBF908C9084A4B2B4422CBFD48CD4844FF4B3
:2045C00000364FF42037DFF8A0C79CF900C0BCF1010F0ED1998218839C831D8404201071C1
:2045E000052050710620907130463E46118A938A0CE0988219839C831D84052010710420D0
:204600005071062090713846918A138A148BD064D4825382D1814FF4403050651665DFF872
:20462000040B01210170F0BD80B5554B0128986802BF40F400409860012009D020F40040B2
:20464000986000224FF49061184601F070F90020DFF8B01A087001BD0008014008000240CA
:2046600010B5474CDFF89C0A0078012807D1A06840F40040A0600421204601F02EFA0121AA
:20468000204601F068F901F0D2FBDFF89C0A007801280CD1DFF8940A0078012807D04FF479
:2046A0000071DFF88C0ABDE81040FEF7AEBB4FF40071DFF87C0ABDE81040FEF7A8BB00006B
:2046C0004C240140DFF83C0A0078012805D1DFF8640A016821F40041016001207047000058
:2046E000000C0140002C014070B500F05FF8DFF8480A007801280FD1DFF8400A00780B281E
:2047000024BF4FF4AF754FF4967306D200EB8005ADB24FF4FA7300E01E251F480278DFF8D1
:20472000200A418D042A25D1B0F91C40DFF8142AB2F90060A64209DAB2F90030EB18A342AA
:20474000AFBF14801388EB18138013E0B2F90050A5420FDB9BB21D19B2F90060B542BDBF66
:204760001588EB1A1380148034B9491CDFF8D8391B68125F418570BD0021FBE7000000202C
:204780000024014000280140402C0140804D00086C4D0008C0030020760400207C040020EB
:2047A000342C01403C240140C0E0FFFF2DE9F84FDFF88C49A06B44F2362281B291420AD295
:2047C000DFF88819DFF8882912680A60DFF8841900220A7009E049F67F22914205D3DFF89A
:2047E0007819DFF86C2912680A60DFF86C190968DFF8582912688A4206D2891A022903D2F2
:020000040800F2
:20480000DFF8501901220A70DFF850190A68C2EBC20280B28018C0080860DFF844190A88D8
:20482000824238BF0880DFF83C3993F80090DFF838190988814228BF09F101095FFA89F98C
:20484000B9F1C90F28BF4FF0C80983F80090DFF81C79386081422CBF4FF480738023DFF872
:204860001099A9F80430DFF80C391E68DFF808294FF496739E423ABF13885B1C0023138023
:20488000B4F92E30DFF8F4B8BBF900E0BEF1500FB8BF5B1C02DB012BA8BF5B1E40F2D17896
:2048A0001BB24345A8BF4FF4FA63B4F93050BEF1460FB8BF6D1C02DB012DA8BF6D1E2DB28F
:2048C0004545A8BF4FF4FA65258640F2E935AB420DDB81420BD3DFF8A8584FF0050885F834
:2048E0000080DFF8A0584FF0000885F800801288652A08D3DFF89028127822B940F6B9320C
:20490000904228BF3960B6F5967F0AD9DFF870281078042805D01078032802D0481C386029
:204920000023DFF864683078012809D1DFF820080068A0F29110132802D2481C386000233E
:20494000E38501F041FDDFF844184843C11300EB11400214608E3C2A03DA042803D2401C4E
:2049600001E000B1401E6086A16B207AA0F13303DBB2092B08D2DFF8D8371B684FF4C87570
:20498000AB4228BF4FF47A61DD2A0DDBDFF8D827128889B28A4207D340F6B932914203D31B
:2049A000DFF8E01701220A70618E042907D3DFF8E017097819B9DFF8CC1700220A70DFF848
:2049C000C48798F8001021B9627A012A08BF002002D0C82838BF401C2072617230780128D9
:2049E00004BF012188F80010DFF83C17097831B1DFF85C2712684FF4C8739A4202D2002291
:204A000088F80020A38EDFF88C27128812B108B95B1C00E00023A386A38E152B24BF002303
:204A200088F80030DFF820572B682B685B0440F19480B4F92C00C749B1F900106FF0BC02EE
:204A4000914205DBDFF850170968B1F55C5F05D96FF0770188422CDA78302BE0DFF83C1731
:204A6000096843F63522914218D389B2DFF830275118DFF83027514342F6AB2291FBF2F16F
:204A80006FF4F97209B29142A8BFDFF81C1706DADFF81027914202DA114600E00021814291
:204AA000B8BF283802DB8842B8BF283000B2012800DB0020A085BBF9000000EB8001480046
:204AC000362190FBF1F080B23D28A8BFB4F92C0009DA012806DBB4F92C1048433C2190FBF3
:204AE000F1F000E0002098F8001001B90020DFF8BC160880B1F90000A083DFF8B4164FF479
:204B000000520A800021A170DFF87476397801290ED100280CD5E079012805D102203870E1
:204B20002020A9F8040003E00120E07101F0B2FA3878082809D03078002840F00881DFF885
:204B400054060088002800F0028101F06CF8012840F0FD8005203870F9E00023A385DFF8E5
:204B60004CB6ABF80030DFF800361B88D7F800C0634510D3DFF83C361B8863B9DFF8383649
:204B80001B7843B9DFF834361B78102B03D0DFF830361B784BB3DFF82C361B78F02B24D0FB
:204BA000DFF8243693F90030012B1ED0DFF81C361B78012B19D000B9BAB9B1B1DFF810A602
:204BC0004FF400415046FEF715F901280DD0DFF804060088C8214843DFF874150968DFF82D
:204BE000F8251268891A88422CD20020E071A070DFF88C75387820B9012038700020A083C5
:020000040800F2
:204C00000AE0B4F91C0038B10020A0838020A9F804000020ABF800003878082805D0307850
:204C200048B9DFF87005008828B100F0FCFF012804BF0520387000F067FADFF87405002160
:204C4000018084E02868400506D501F02FF918B9286820F480602860286800050DD501F061
:204C600025F930B14FF400415046FEF7C3F8012803D1286820F400602860DFF804A59AF8D0
:204C80000000002863D000F03FFADFF8DC0400883A68824238BF00230ED34BF26D239A4247
:204CA00028BF4FF4804307D2131A9B034BF26C26361AB6B2B3FBF6F3DFF820653380DFF85F
:204CC000F03436881E80824238BF40F29A2015D34BF26C239A4228BF44F627600ED2461C33
:204CE000B24208BF002009D0111A44F68D325143181A80B2B1FBF0F000F29A2098F800100C
:204D000001B90020296840F67E72114209D040F2046100B2884204DB40F20360DFF8241440
:204D20000880A0839AF8000001280DD1286840040AD4E079012804BF02208AF8000003D0C1
:204D40000120E07101F0A6F92020A9F80400BDE8F18F00009A0000203C280140382401404B
:204D600038280140202C01405901002040605000050160504000100550406000510000004F
:204D8000060405060405000070B5DFF810442068DFF84C140A88824238BF088044F2D151B9
:204DA00088420AD2DFF83C14DFF8A42312680A60DFF8341400220A7009E04AF2E9218842F0
:204DC00005D3DFF82814DFF8882312680A60DFF81C140968DFF80C2412688A4206D2891A42
:204DE000022903D2DFF8001401220A70DFF8A0633178DFF8FC23101849F23E72904231D2CA
:204E0000DFF8E403007868BBCD4DE872A87A0A2824D3CD48016841F480410160DFF8D403F7
:204E200000210180DFF8D003018841F0010101800020A883DFF8C40300210170DFF8800314
:204E40000170DFF878030078102804D0DFF868030078012804D101F0F2FB01E0401CA8721E
:204E600000211CE0DFF88C03028842F210739A423CBF521C0280B24D0020A872E87A0A28DA
:204E800055D3B148026822F480420260DFF8680302884FF6FE731A40028001B1491E317035
:204EA000A948016801F48041AA6D02F48042914202D0D34901220A700068A865206843F67F
:204EC000342188420DD298480078012806D04FF40041BF48FDF78EFF012802D1C948002143
:204EE000017092480178012938D1C7490A88521C0A8092B2C54B1B78C82463439A4202DBEF
:204F0000002202700A8008882821894C90FBF1F201FB120014284FF40061204618DAFDF71D
:204F200074FF4FF400712046FDF76FFF20E0401CE872C0B20928B0D1924800780128ACD1B0
:204F400089480088894A12689042A6D2C821A6E7FDF75DFF4FF40071204607E0744CAC48E6
:204F6000007801284FF400612046DDD0FDF74FFF974E4FF400413046FDF73CFF012809D186
:204F8000A448008840F2E33188429241D243D20F2A730FE0687B012808BF28739D4800885D
:204FA000962838BF002004D340F25F11884201D3012028734FF400413046FDF71BFF687366
:204FC0004FF400613046FDF722FF4FF480612046FDF71DFF4FF480513046FDF718FFFDF77F
:204FE00027FC30B14FF400613046FDF70EFF002053E063480178032902D00078042809D19F
:020000040800F2
:205000005948008859490968884203D25D480078012817D04FF400413046FDF7EBFE012888
:205020002BD1287B48BB4A4800682821B0FBF1F201FB120014284FF48051304618D2FDF74B
:20504000E4FE17E0287B0128EDD1414800682821B0FBF1F201FB120014284FF48061204651
:2050600002D2FDF7D2FE01E0FDF7D1FE022002E0FDF7CDFE0120012110E0287B012806D15B
:205080004FF480612046FDF7C0FE022005E04FF480513046FDF7B9FE012000215E4A11702D
:2050A0005E49087070BD10B55D485E49B1F9002003685A43B1F9021040684843D11302EB01
:2050C0001141C21300EB1240001400EB214041F6CF4148435449B1F90020C31300EB1340BF
:2050E00002EB204000EBD07040100880144CE078401CE070C0B2022803D301F011FC00206C
:20510000E07010BD9A04002080B5144800684CF2F111884204D3402000F01BFD012002BD92
:20512000002002BD7B0400208604002087040020000C0140082401405F01002060010020E1
:205140000000002028040020C003002018040020C4030020970400201C04002004040020BA
:205160005A0400208104002038040020E0030020FC020020D40300203C04002042040020D2
:20518000760400208E0400208A040020007102008D04002036040020C8030020D0030020B9
:2051A000CCC5FFFFA8E4FFFF0CFEFFFF500400204E0400202C0400207E0400205B0100207A
:2051C0007A040020640100207C040020850400200008014052040020E8030020AA030020CC
:2051E0005C040020140400209604002010040020CBC5FFFF6E0400204E01002077040020DF
:20520000820400207D0400203E0400208804002084040020540400208C0400208B040020BA
:205220009C030020B80300209A000020044A0029116814BF084321EA0000106070470000DA
:20524000042004E001684908490001600021016041608160C1604249884202BF41480168B5
:2052600041F00F0156D04049884202BF3D48016841F0F0014ED03D49884202BF394801688A
:2052800041F4706146D03A49884202BF3548016841F470413ED03749884202BF314801681D
:2052A00041F4702136D03449884202BF2D48016841F470012ED03149884202BF29480168B9
:2052C00041F0706126D02E49884202BF2D48016841F00F011ED02C49884202BF29480168ED
:2052E00041F0F00116D02949884202BF2548016841F470610ED02649884202BF2148016823
:2053000041F4704106D02349884204D11D48016841F470210160704702681F4B1A408B68F9
:205320001A430B6A1A430B691A434B691A438B691A43CB691A434B6A1A438B6A1A430260B4
:20534000CA6842600A6882604968C16070470029016812BF41F00101490849000160704754
:2053600008000240040002401C0002403000024044000240580002406C000240800002403D
:2053800008040240040402401C0402403004024044040240580402400F80FFFF80B5DFF8DC
:2053A000A813884208D101214FF40060FDF74BFC00214FF40060B5E0B0F1804F06D10121CD
:2053C0000120FDF749FC0021012014E0DFF87C13884206D101210220FDF73EFC0021022081
:2053E00009E0DFF86C13884209D101210420FDF733FC00210420BDE80440FDF72DBCDFF87F
:020000040800F2
:205400005413884206D101210820FDF725FC00210820F0E7DFF84013884206D101211020E8
:20542000FDF71AFC00211020E5E7CC49884206D101212020FDF710FC00212020DBE7C849F9
:20544000884208D101214FF40050FDF7FCFB00214FF4005066E0C349884208D101214FF4FB
:205460000020FDF7F0FB00214FF400205AE0BE49884208D101214FF48010FDF7E4FB0021DC
:205480004FF480104EE0B949884208D101214FF40010FDF7D8FB00214FF4001042E0B44997
:2054A000884206D101214020FDF7D6FB00214020A1E7B049884206D101218020FDF7CCFBE4
:2054C0000021802097E7AC49884208D101214FF48070FDF7C1FB00214FF480708BE7A7493A
:2054E000884208D101214FF48030FDF7ACFB00214FF4803016E0A249884208D101214FF45C
:205500000030FDF7A0FB00214FF400300AE09D49884209D101214FF48020FDF794FB00211B
:205520004FF48020FDF78FFB01BD10B40388864A90420ED08A4CA0420BD0B0F1804F08D0A2
:20554000824CA04205D0824CA04202D0814CA04204D14FF68F7423404C8823437E4CA0422F
:2055600007D07E4CA04204D04FF6FF442340CC88234303808B8883850B88038590420BD0C9
:20558000774A904208D07D4A904205D07C4A904202D07C4A904201D1097A0186012181822F
:2055A00010BC704730B4028C4FF6FE731A400284048C8288038B4FF68C752B400D882B4384
:2055C0004FF6FD752C400D892C434D882C435E4DA8420BD0624DA84208D0684DA84205D00A
:2055E000674DA84202D0674DA84210D14FF6F7752C404D892C434FF6FB752C408D882C43B5
:205600004FF6FF452A408D892A43CD892A4382800383C9888186048430BC704770B4028C94
:205620004FF6EF731A400284048C8288038B48F6FF452B400D8843EA05234FF6DF752C40DF
:205640000D894E88354344EA05143F4DA84202D0434DA84213D14FF67F752C404D8944EAD0
:2056600005144FF6BF752C408D8844EA05144FF2FF352A408D89CE89354342EA8502828057
:205680000383C988018733E070B4028C4FF6FF631A400284048C8288838B4FF68C752B4006
:2056A0000D882B434FF6FF552C400D894E88354344EA0524244DA84202D0294DA84213D136
:2056C0004FF2FF752C404D8944EA05244FF6FF352C408D8844EA05244CF6FF752A408D89F5
:2056E000CE89354342EA051282808383C9888187048470BC704770B4028C4EF6FF731A400A
:205700000284048C8288838B48F6FF452B400D8843EA05234DF6FF752C400D894E8835437D
:2057200044EA0534084DA84202D00D4DA84205D14BF6FF752A408D8942EA851282808383D7
:20574000C988A0F84010D3E7002C01400004004000080040000C004000100040001400406D
:2057600000340140004C0140005001400054014000180040001C004000200040004001406C
:2057800000440140004801400A884B881A438B881A43CB881A430B891A434B891A438989E5
:2057A000114324E04FF6FF71818000210180C1804180017270470021018041808180C18068
:2057C000018141818181C18170470029018812BF41F001014FF6FE7211400180704700296D
:2057E000B0F8441012BF41F400414904490CA0F844107047002A828914BF114322EA0101B7
:020000040800F2
:205800008181704781827047028B4FF6F7731A40114301837047028B4FF2FF731A4042EA2A
:20582000012101837047828B4FF6F7731A40114381837047828B4FF2FF731A4042EA01217E
:205840008183704782884FF68F731A4082808288114381807047008A0140481E8041C043D5
:20586000C00F7047FFE7C9430182704780B59149884208D101214FF40070FDF7E4F90021FD
:205880004FF4007016E08C49884208D101214FF48060FDF7D8F900214FF480600AE08749DF
:2058A000884209D101214FF40040FDF7CCF900214FF40040FDF7C7F901BD4268804B1A4001
:2058C0000B681A430B7942EA0322426082687D4B1A40CB681A438B681A434B7942EA430260
:2058E0008260C26A22F47002097C491EC9B242EA0151C162704700210160017141718160CC
:20590000C1600121017470470029816812BF41F001014908490081607047002981681ABFE5
:205920004FF48072114321F4807181607047C9B2002A426814BF114322EA01014160704764
:20594000816841F004018160704780680006800E00F0010070470029816814BF41F4A001B1
:2059600021F4A0018160704770B4032407250A290AD3A1F10A067443C668A54026EA0505CC
:20598000A3402B43C36007E04C430669A54026EA0505A3402B43036105231F24072A08D284
:2059A000521E5A43436B9440A34391401943416312E00D2A08D2D21F5A43036B9440A343E8
:2059C00091401943016307E00D3A5A43C36A9440A34391401943C16270BC7047002981683F
:2059E00014BF41F4801121F4801181607047826822F4E042114382688A4218BF8160704735
:205A00000029816814BF41F4004121F40041816070470029816814BF41F4021121F40211E8
:205A20008160704770B4032407250A290AD3A1F10A067443C668A54026EA0505A3402B4370
:205A4000C36007E04C430669A54026EA0505A3402B430361836BC3F30154D21C121B521E06
:205A600002EB82021F249440A34391401943816370BC7047826B22F44012491E42EA01518A
:205A80008163704781B000220092009000982831081800900098006880B201B070470A4968
:205AA0000028086814BF40F4000020F400000860704700000024014000280140003C0140C9
:205AC000FFFEF0FFFDF7F1FF0824014000680140481E8041C043C00F7047C943016070470C
:205AE00080B500F042FA00F0C9FD00F073FC00F0A6FDDFF81005C088DFF80C150880DFF812
:205B00000C1508800120FEF78FFD0121DFF80005BDE80440FFF763BEDFF8E804818843F637
:205B2000181251180904490C8161DFF8E80400210160704780B500F0B9F9022808BF4FF487
:205B4000006003D0012803D14FF4806000F001F801BD70B505464FF4167001F0CDF800213B
:205B6000DFF8AC04FFF73BFEDFF8AC44206840F67E71084247D1022D24D0082D26D0102D0E
:205B80001CD0202D16D0402D10D0B5F5807F09D0B5F5007F1ED0B5F5806F23D0B5F5006F5B
:205BA0001CD023E0DFF8740409211EE0DFF86C0408211AE0DFF86404072116E0DFF85C0481
:205BC000062112E0DFF8540405210EE0DFF84C0404210AE0DFF84404032106E0DFF83C04F3
:205BE000022102E0DFF834040121C170DFF82C64012030710421DFF82804FDF708F90020D8
:020000040800F2
:205C000030707070B070206828432060206820F440502060DFF80C04082101700020BDE87F
:205C20007040FEF701BD10B5DFF8EC432068800703D5206820F0020020602068800606D54C
:205C40002068400403D5206820F0200020602068C00506D500F04FF818B9206820F48070AC
:205C600020602068400606D5FFF74EFA18B9206820F0400020602068400506D500F016F9ED
:205C800018B9206820F480602060206800050ED500F00CF938B14FF40041DFF88C03FDF70B
:205CA000A9F8012803D1206820F400602060206880050AD54FF48051DFF86403FDF79AF806
:205CC00018B1206820F4007020602068400703D5206820F0040020602068000703D52068BD
:205CE00020F008002060206840F67E710140481E8041C00F10BDF0B4CC490868C0EB8010F7
:205D0000CB4A128910188009CA4A12684FF416739A4238BF47F230500860BA48C64A127838
:205D2000032A0CBF028AC2898281096845F2E95245F6D523994209D3C04CB4F900408589BD
:205D4000261204EBD65405EB642409E0914206D384895D1A0326B5FBF6F5641B00E000241A
:205D6000048191423CBFB649012203D3994202D3B34900220A70B349096840F2E93240F2A4
:205D8000D173994209D3AD4CB4F900408589261204EBD65405EB642407E0914223BF8489A2
:205DA000C1F5FA65A4EB95040024448191423CBFA549012203D3994202D3A34900220A70D0
:205DC00041890289914228BF1146A04A12885201A2F5F075ADB29E4A1278012A23D19D4AB3
:205DE0001268AA421FD283889B4C24789B4E3678ED1A05F240157543A71B95FBF7F5ADB27F
:205E0000A3F5A07797420BD26C4394FBF6F4A4B2D21AAA1802F240125143B1FBF4F102E0A4
:205E2000714391FBF4F1C1800020F0BC7047F0B47F4C7448C169226811EB5242C261016A7C
:205E4000A38859180162238A456A5D19866AA489A6190478671C4478FFB2FE2F0ED180326B
:205E6000120A403A82617B4D2A6006F18002120A744D2A600027C76100253E460770866220
:205E80004562774A1568C5EB05255B191B0A1360621CD2B2082A06D1091DC9085D4A11601D
:205EA0000021016200224270F0BC704710B56D48B0F90000674909685F4A1278032A12BFB2
:205EC00001EB400000EB400301EB4300664908600CBF6648664800884A4CA080608AA28AA7
:205EE000096843F61913994208D300204FF496718A4226BF0121A170521C1BE0A288914262
:205F00000ED200224FF4C871884238BF401C11D30221A17057490B8843F004030B8009E0ED
:205F200002F28430884224BF0020002202D200200022A070A28260824FF400413A48FCF7A5
:205F400059FF012804BF0020A07002D0A078022805D0484908884FF6FB7210400880A07821
:205F600010BD2848806900B27047434800218161424881614248816142488161704710B544
:205F8000264C2078401C2449096840F67E7211422070C0B222D03C2832D300202070A0781F
:205FA000E178884201D2207928B904211C48FCF72EFF012007E004211948FCF726FF002002
:205FC000A178491CA17020716078401C6070C0B2142815D300206070A07010BDC8280FD368
:205FE00000202070607980F0010161710C4821B10421BDE81040FCF708BF0421FCF707FFBC
:020000040800F2
:2060000010BD0000B40000209400002096000020002C0140D0030020C0030020A40300206B
:20602000000C01407604002000080140FC03002038000020C40300205F01002040040020EE
:206040008F040020D8030020900400205201002061010020C80300206001002062010020FA
:20606000D40300209A0000200C0400204C010020580400204E01002020030020FC02002086
:20608000D802002060000020704770471648B0F9080070471448012141700021017001810F
:2060A00041818180C180704780B54FF48070ADF8000028208DF8030000A90C48FCF731FE29
:2060C0004FF40040ADF8000004208DF8030000A90748FCF726FE07480021016001BD064800
:2060E000002101807047000038010020000C014000080140C40300202C0400202DE9F74FC5
:2061000084B09946DFF8E843B4F90E8047F6FF7101FB08F0E26A9042B8BFE06207DB4FEA9C
:20612000C8335B429342A4BFA8EBC832E262226B904206DB4FEAC8304042904202DBA8EB89
:20614000C8302063B4F90C004143626A9142B8BF616206DBC3035B429342A4BFA0EBC032B5
:206160006262A26A914205DBC1034942914202DBA0EBC031A162656A95FBF0F6BDF81810FC
:20618000711A0FB2A16A91FBF0FBBDF81A00ABEB000000B20190B4F908C004980FFA89FEE8
:2061A0000EFB00F9E16A91FBF8F0B4F91420B4F91630B4F912A036B206FB1A5507FB0C5530
:2061C0004FEAA93609EB56467600361406FB035500B200FB12550395B4F9105005FB08F548
:2061E0000095C44DB5F90050B4F918606E43D4F83090B4F90AC007FB0C1C009F99FBF7F7D7
:2062000007FB06C70297B4F908C0059F0EFB07FE99FBF8F8A76A0FFA8BFB0BFB1A77DDF85F
:2062200004A00AFB0C7C4FEAAE370EEB57477F003F1407FB03C30FFA88F808FB1237B4F95C
:206240000A200AFB0292009B91FBF3F101FB1626A949B1F9001021B1002D48BF4FF0FF3216
:2062600000D40122A080A4F8068002FB08F1494209B2504300B200F0D6F8B4F920100A4679
:2062800002F1500383420EDA9C4BB3F9003040F22D15AB4205DA9A4B1B889A4D2D68AB4217
:2062A00001D201F1500000B2503A90420EDA934AB2F9002040F22D139A4205DA904A12888A
:2062C000904B1B689A4201D2A1F150008C4909888C4A126891420CD28B490978012904D015
:2062E0008A49B1F90010D32903DB00B21428B8BF142087490880B1F900502584284600F045
:20630000D7F88448018869180180039860620298E062A7622663804800684FF416718842C8
:2063200039BF40F2891040F25E7140F24D2040F6D701E182608207B0BDE8F08F70B4002286
:2063400000217648034610245D5EB3F902607519B3F904607519B3F906607519AA1808334F
:20636000641EF1D1531102EB93629211614B1A80102330F9024BA41A04FB041130F9024BB9
:20638000A41A04FB041130F9024BA41A04FB041130F9024BA41A04FB04115B1EE9D15448CC
:2063A000931102EB5362D211C38B5A434B1101EB9361B2EBA11FB4BF00210121817070BC5D
:2063C00070474B48807870474A4800E05148B0F9000070474648002141628162C16201639D
:2063E00081704163017041704A4801806DE0404902884A8242880A8182888A82C2884A8127
:020000040800F2
:206400000289CA8242890A8382898A81C289CA81028A0A82428A4A83828A8A8382698A63FF
:20642000808BC8837047F8B504460D463948B0F9000000F093FD0090BDF9020000FB04F222
:20644000BDF9001001FB05F3354E9F187780684301FB04003080981303EB5040C11309B23E
:20646000901302EB504040000014BDE8F440204AB2F91A30081A5843516B431300EB9340E3
:206480004B1401EB9331891401EBA030916B814203DA01201070084608E049428842BCBF51
:2064A00001205070F7DB00211170517000B270471C490A78521CD2B2402A08BF00220A70B7
:2064C0000978164A22F81100704700B58021134800F0CEFE13480021017000BD0448B0F9ED
:2064E000040070470248B0F90600704700000000680200204A0400209C0000204204002017
:2065000038040020E00300208A040020460400204C04002048040020F80300206801002084
:2065200020040020990400207047000000B589B040F28910ADF8000040F24F20ADF80400FB
:2065400040F25E70ADF808000120ADF8100040F2FA3000EBD070C0030014BDF8101049003C
:20656000ADF810100028F4D10904481100F084FE384A394B00F098FE0022384B00F094FEDE
:2065800000F064FFADF80A003548ADF8020041F6F450ADF8060040F66410ADF8120040F21C
:2065A000A910ADF814004FF48040ADF80C004FF48060ADF80E0041F2257006900820ADF8B4
:2065C0001C0000A8FFF713FF09B000BD80B5FFF7F8FE50B923480178491C0170C9B23229BF
:2065E0000AD300210170002002BD00F007F81028F0DB1C4800210170012002BD80B5FFF75A
:20660000E3FE1A4948434FF47021FFE790FBF1F000B202BD1448017801B1704780B54170F0
:2066200081704FF42021C1601149B1F900100121017000F004F80F480421017001BD0A4834
:20664000002101708160C16081800B480521018070470000A7E8482EFF2109400000F03E58
:2066600000B0FFFF9804002084030020007102002A040020760400208802002070B582B0AD
:20668000DFF8C845002020806080DFF8C405002101804180DFF8BC0501804180DFF8B855B5
:2066A000DFF8B865DFF8B825705E00F059FF2860DFF8B025B4F90210B6F9020000F050FF39
:2066C000686000F002FCD5E9001200A800F01DFCDFF89425DDE90001C2E90001D2E90001C4
:2066E00002B0BDE87040FDF71FBDF0B585B0FDF7CBFC0090DFF8580500A90A8802804A88DB
:20670000428002880A8042884A80009800F058FB0190DFF8405501A80188298041886980AA
:20672000FFF754FE00A92A880A806A884A800146009800F063FB0190DFF8106501A8018834
:20674000318041887180DFF8240531880180FFF7F5FDFFF706FC0346DFF80C4500A82988EA
:20676000018069884180009AD4E90001FFF7C6FCDFF8FC04B0F9000068B9DFF8F804B0F9B9
:206780000000332807DBDFF8F0040078012808BF6FF0090000D00020DFF8C074A7F8460041
:2067A000B6F90010DFF8B824DFF8D0040068400406D4B7F84000B7F84630181800B203E05D
:2067C000DFF8BC04B0F9000000F0CAFEDFF888542860DFF89024B6F90210B7F9020000F098
:2067E000BFFE0128A8BF00206860FFF777FEB862FFF778FEF862FFF7E7FDA7F84400332801
:020000040800F2
:206800001BDBB7F84A10491C09B2C92903DBC921012287F83020B7F9482064280FDAB7F970
:20682000400060B9501C40F2F51200B2904207DB0020002187F8301002E00021EBE70020FF
:20684000A7F84800A7F84A1000F03FFBD5E9001202A800F05AFBDDE90201C4E90001D4E93B
:206860000001FDF761FCFEF71EFC05B0F0BD10B582B0FFF7C3FEDFF80C44DFF80C24014632
